{
  "contractName": "KittyMarketPlace",
  "abi": [
    {
      "inputs": [
        {
          "internalType": "address",
          "name": "_kittyContractAddress",
          "type": "address"
        }
      ],
      "payable": false,
      "stateMutability": "nonpayable",
      "type": "constructor"
    },
    {
      "anonymous": false,
      "inputs": [
        {
          "indexed": false,
          "internalType": "string",
          "name": "TxType",
          "type": "string"
        },
        {
          "indexed": false,
          "internalType": "address",
          "name": "owner",
          "type": "address"
        },
        {
          "indexed": false,
          "internalType": "uint256",
          "name": "tokenId",
          "type": "uint256"
        }
      ],
      "name": "MarketTransaction",
      "type": "event"
    },
    {
      "constant": true,
      "inputs": [],
      "name": "owner",
      "outputs": [
        {
          "internalType": "address",
          "name": "",
          "type": "address"
        }
      ],
      "payable": false,
      "stateMutability": "view",
      "type": "function"
    },
    {
      "constant": false,
      "inputs": [
        {
          "internalType": "address",
          "name": "_kittyContractAddress",
          "type": "address"
        }
      ],
      "name": "setKittyContract",
      "outputs": [],
      "payable": false,
      "stateMutability": "nonpayable",
      "type": "function"
    },
    {
      "constant": true,
      "inputs": [
        {
          "internalType": "uint256",
          "name": "_tokenId",
          "type": "uint256"
        }
      ],
      "name": "getOffer",
      "outputs": [
        {
          "internalType": "address",
          "name": "seller",
          "type": "address"
        },
        {
          "internalType": "uint256",
          "name": "price",
          "type": "uint256"
        },
        {
          "internalType": "uint256",
          "name": "index",
          "type": "uint256"
        },
        {
          "internalType": "uint256",
          "name": "tokenId",
          "type": "uint256"
        },
        {
          "internalType": "bool",
          "name": "active",
          "type": "bool"
        }
      ],
      "payable": false,
      "stateMutability": "view",
      "type": "function"
    },
    {
      "constant": false,
      "inputs": [],
      "name": "getAllTokenOnSale",
      "outputs": [
        {
          "internalType": "uint256[]",
          "name": "listOfOffers",
          "type": "uint256[]"
        }
      ],
      "payable": false,
      "stateMutability": "nonpayable",
      "type": "function"
    },
    {
      "constant": false,
      "inputs": [
        {
          "internalType": "uint256",
          "name": "_price",
          "type": "uint256"
        },
        {
          "internalType": "uint256",
          "name": "_tokenId",
          "type": "uint256"
        }
      ],
      "name": "setOffer",
      "outputs": [],
      "payable": false,
      "stateMutability": "nonpayable",
      "type": "function"
    },
    {
      "constant": false,
      "inputs": [
        {
          "internalType": "uint256",
          "name": "_tokenId",
          "type": "uint256"
        }
      ],
      "name": "removeOffer",
      "outputs": [],
      "payable": false,
      "stateMutability": "nonpayable",
      "type": "function"
    },
    {
      "constant": false,
      "inputs": [
        {
          "internalType": "uint256",
          "name": "_tokenId",
          "type": "uint256"
        }
      ],
      "name": "buyKitty",
      "outputs": [],
      "payable": true,
      "stateMutability": "payable",
      "type": "function"
    }
  ],
  "bytecode": "0x608060405234801561001057600080fd5b506040516113ff3803806113ff8339818101604052602081101561003357600080fd5b8101908080519060200190929190505050336000806101000a81548173ffffffffffffffffffffffffffffffffffffffff021916908373ffffffffffffffffffffffffffffffffffffffff1602179055506100938161009960201b60201c565b50610136565b6000809054906101000a900473ffffffffffffffffffffffffffffffffffffffff1673ffffffffffffffffffffffffffffffffffffffff163373ffffffffffffffffffffffffffffffffffffffff16146100f257600080fd5b80600160006101000a81548173ffffffffffffffffffffffffffffffffffffffff021916908373ffffffffffffffffffffffffffffffffffffffff16021790555050565b6112ba806101456000396000f3fe6080604052600436106100705760003560e01c80638da5cb5b1161004e5780638da5cb5b146101cd578063941b055b1461022457806395a0f9c714610269578063ae5310f6146102a457610070565b80634579268a1461007557806349b3709f1461011057806362b7f94e1461017c575b600080fd5b34801561008157600080fd5b506100ae6004803603602081101561009857600080fd5b81019080803590602001909291905050506102d2565b604051808673ffffffffffffffffffffffffffffffffffffffff1673ffffffffffffffffffffffffffffffffffffffff168152602001858152602001848152602001838152602001821515151581526020019550505050505060405180910390f35b34801561011c57600080fd5b5061012561034d565b6040518080602001828103825283818151815260200191508051906020019060200280838360005b8381101561016857808201518184015260208101905061014d565b505050509050019250505060405180910390f35b34801561018857600080fd5b506101cb6004803603602081101561019f57600080fd5b81019080803573ffffffffffffffffffffffffffffffffffffffff169060200190929190505050610464565b005b3480156101d957600080fd5b506101e2610501565b604051808273ffffffffffffffffffffffffffffffffffffffff1673ffffffffffffffffffffffffffffffffffffffff16815260200191505060405180910390f35b34801561023057600080fd5b506102676004803603604081101561024757600080fd5b810190808035906020019092919080359060200190929190505050610526565b005b34801561027557600080fd5b506102a26004803603602081101561028c57600080fd5b81019080803590602001909291905050506109b2565b005b6102d0600480360360208110156102ba57600080fd5b8101908080359060200190929190505050610c3d565b005b6000806000806000806003600088815260200190815260200160002090508060000160009054906101000a900473ffffffffffffffffffffffffffffffffffffffff168160010154826002015483600301548460040160009054906101000a900460ff16849450955095509550955095505091939590929450565b606060006002805490509050600081141561039b5760006040519080825280602002602001820160405280156103925781602001602082028038833980820191505090505b50915050610461565b6060816040519080825280602002602001820160405280156103cc5781602001602082028038833980820191505090505b50905060008090505b8281101561045a5760011515600282815481106103ee57fe5b906000526020600020906005020160040160009054906101000a900460ff161515141561044d576002818154811061042257fe5b90600052602060002090600502016003015482828151811061044057fe5b6020026020010181815250505b80806001019150506103d5565b8193505050505b90565b6000809054906101000a900473ffffffffffffffffffffffffffffffffffffffff1673ffffffffffffffffffffffffffffffffffffffff163373ffffffffffffffffffffffffffffffffffffffff16146104bd57600080fd5b80600160006101000a81548173ffffffffffffffffffffffffffffffffffffffff021916908373ffffffffffffffffffffffffffffffffffffffff16021790555050565b6000809054906101000a900473ffffffffffffffffffffffffffffffffffffffff1681565b61053033826110ac565b610585576040517f08c379a000000000000000000000000000000000000000000000000000000000815260040180806020018281038252602381526020018061123f6023913960400191505060405180910390fd5b600015156003600083815260200190815260200160002060040160009054906101000a900460ff16151514610605576040517f08c379a00000000000000000000000000000000000000000000000000000000081526004018080602001828103825260248152602001806112626024913960400191505060405180910390fd5b600160009054906101000a900473ffffffffffffffffffffffffffffffffffffffff1673ffffffffffffffffffffffffffffffffffffffff1663e985e9c533306040518363ffffffff1660e01b8152600401808373ffffffffffffffffffffffffffffffffffffffff1673ffffffffffffffffffffffffffffffffffffffff1681526020018273ffffffffffffffffffffffffffffffffffffffff1673ffffffffffffffffffffffffffffffffffffffff1681526020019250505060206040518083038186803b1580156106d857600080fd5b505afa1580156106ec573d6000803e3d6000fd5b505050506040513d602081101561070257600080fd5b8101908080519060200190929190505050610768576040517f08c379a00000000000000000000000000000000000000000000000000000000081526004018080602001828103825260418152602001806111fe6041913960600191505060405180910390fd5b610770611192565b6040518060a001604052803373ffffffffffffffffffffffffffffffffffffffff1681526020018481526020016002805490508152602001838152602001600115158152509050806003600084815260200190815260200160002060008201518160000160006101000a81548173ffffffffffffffffffffffffffffffffffffffff021916908373ffffffffffffffffffffffffffffffffffffffff16021790555060208201518160010155604082015181600201556060820151816003015560808201518160040160006101000a81548160ff0219169083151502179055509050506002819080600181540180825580915050906001820390600052602060002090600502016000909192909190915060008201518160000160006101000a81548173ffffffffffffffffffffffffffffffffffffffff021916908373ffffffffffffffffffffffffffffffffffffffff16021790555060208201518160010155604082015181600201556060820151816003015560808201518160040160006101000a81548160ff0219169083151502179055505050507fd99e4fad9ad6313b1feb588fa8e605e3a9873172f2024330c35dd2b4041a4386338360405180806020018473ffffffffffffffffffffffffffffffffffffffff1673ffffffffffffffffffffffffffffffffffffffff1681526020018381526020018281038252600c8152602001807f437265617465206f666665720000000000000000000000000000000000000000815250602001935050505060405180910390a1505050565b6109ba611192565b600360008381526020019081526020016000206040518060a00160405290816000820160009054906101000a900473ffffffffffffffffffffffffffffffffffffffff1673ffffffffffffffffffffffffffffffffffffffff1673ffffffffffffffffffffffffffffffffffffffff1681526020016001820154815260200160028201548152602001600382015481526020016004820160009054906101000a900460ff16151515158152505090503373ffffffffffffffffffffffffffffffffffffffff16816000015173ffffffffffffffffffffffffffffffffffffffff1614610af1576040517f08c379a00000000000000000000000000000000000000000000000000000000081526004018080602001828103825260248152602001806111da6024913960400191505060405180910390fd5b60036000838152602001908152602001600020600080820160006101000a81549073ffffffffffffffffffffffffffffffffffffffff02191690556001820160009055600282016000905560038201600090556004820160006101000a81549060ff0219169055505060006002826040015181548110610b6d57fe5b906000526020600020906005020160040160006101000a81548160ff0219169083151502179055507fd99e4fad9ad6313b1feb588fa8e605e3a9873172f2024330c35dd2b4041a4386338360405180806020018473ffffffffffffffffffffffffffffffffffffffff1673ffffffffffffffffffffffffffffffffffffffff1681526020018381526020018281038252600c8152602001807f52656d6f7665206f666665720000000000000000000000000000000000000000815250602001935050505060405180910390a15050565b610c45611192565b600360008381526020019081526020016000206040518060a00160405290816000820160009054906101000a900473ffffffffffffffffffffffffffffffffffffffff1673ffffffffffffffffffffffffffffffffffffffff1673ffffffffffffffffffffffffffffffffffffffff1681526020016001820154815260200160028201548152602001600382015481526020016004820160009054906101000a900460ff161515151581525050905080602001513414610d6d576040517f08c379a00000000000000000000000000000000000000000000000000000000081526004018080602001828103825260168152602001807f54686520707269636520697320696e636f72726563740000000000000000000081525060200191505060405180910390fd5b600115156003600084815260200190815260200160002060040160009054906101000a900460ff16151514610e0a576040517f08c379a00000000000000000000000000000000000000000000000000000000081526004018080602001828103825260178152602001807f4e6f20616374697665206f726465722070726573656e7400000000000000000081525060200191505060405180910390fd5b60036000838152602001908152602001600020600080820160006101000a81549073ffffffffffffffffffffffffffffffffffffffff02191690556001820160009055600282016000905560038201600090556004820160006101000a81549060ff0219169055505060006002826040015181548110610e8657fe5b906000526020600020906005020160040160006101000a81548160ff021916908315150217905550600081602001511115610f0b57806000015173ffffffffffffffffffffffffffffffffffffffff166108fc82602001519081150290604051600060405180830381858888f19350505050158015610f09573d6000803e3d6000fd5b505b600160009054906101000a900473ffffffffffffffffffffffffffffffffffffffff1673ffffffffffffffffffffffffffffffffffffffff166323b872dd826000015133856040518463ffffffff1660e01b8152600401808473ffffffffffffffffffffffffffffffffffffffff1673ffffffffffffffffffffffffffffffffffffffff1681526020018373ffffffffffffffffffffffffffffffffffffffff1673ffffffffffffffffffffffffffffffffffffffff1681526020018281526020019350505050600060405180830381600087803b158015610fec57600080fd5b505af1158015611000573d6000803e3d6000fd5b505050507fd99e4fad9ad6313b1feb588fa8e605e3a9873172f2024330c35dd2b4041a4386338360405180806020018473ffffffffffffffffffffffffffffffffffffffff1673ffffffffffffffffffffffffffffffffffffffff168152602001838152602001828103825260038152602001807f4275790000000000000000000000000000000000000000000000000000000000815250602001935050505060405180910390a15050565b60008273ffffffffffffffffffffffffffffffffffffffff16600160009054906101000a900473ffffffffffffffffffffffffffffffffffffffff1673ffffffffffffffffffffffffffffffffffffffff16636352211e846040518263ffffffff1660e01b81526004018082815260200191505060206040518083038186803b15801561113857600080fd5b505afa15801561114c573d6000803e3d6000fd5b505050506040513d602081101561116257600080fd5b810190808051906020019092919050505073ffffffffffffffffffffffffffffffffffffffff1614905092915050565b6040518060a00160405280600073ffffffffffffffffffffffffffffffffffffffff168152602001600081526020016000815260200160008152602001600015158152509056fe596f7520617265206e6f74207468652073656c6c6572206f662074686174206b69747479436f6e7472616374206e6565647320746f20626520617070726f76656420746f207472616e7366657220746865206b6974747920696e2074686520667574757265596f7520617265206e6f7420746865206f776e6572206f662074686174206b69747479596f752063616e27742073656c6c207477696365207468652073616d65206f6666657273a265627a7a72315820461e277fc5481b3e098bd4e37421740867197357a488bafdbbf904c3e2d3115c64736f6c63430005100032",
  "source": "pragma solidity ^0.5.12;\n\nimport \"./Kittycontract.sol\";\nimport \"./Ownable.sol\";\n//import \"./IKittyMarketPlace.sol\";\n\ncontract KittyMarketPlace is Ownable {\n    Kittycontract private _kittyContract;\n\n    struct Offer {\n        address payable seller;\n        uint256 price;\n        uint256 index;\n        uint256 tokenId;\n        bool active;\n    }\n\n    Offer[] offers;\n\n    event MarketTransaction(string TxType, address owner, uint256 tokenId);\n\n    mapping(uint256 => Offer) tokenIdToOffer;\n\n    function setKittyContract(address _kittyContractAddress) public onlyOwner {\n        _kittyContract = Kittycontract(_kittyContractAddress);\n    }\n\n    constructor(address _kittyContractAddress) public {\n        setKittyContract(_kittyContractAddress);\n    }\n\n    function getOffer(uint256 _tokenId) public view returns (address seller, uint256 price, uint256 index, uint256 tokenId, bool active) {\n        Offer storage offer = tokenIdToOffer[_tokenId];\n        return (offer.seller,\n                offer.price,\n                offer.index,\n                offer.tokenId,\n                offer.active);\n    }\n\n    function getAllTokenOnSale() public returns (uint256[] memory listOfOffers) {\n        uint256 totalOffers = offers.length;\n\n        if (totalOffers == 0) {\n            return new uint256[](0);\n        } else {\n            uint256[] memory result = new uint256[](totalOffers);\n\n            uint256 offerId;\n\n            for (offerId = 0; offerId < totalOffers; offerId++) {\n                if (offers[offerId].active == true) {\n                    result[offerId] = offers[offerId].tokenId;\n                }\n            }\n            return result;\n        }\n    }\n\n    function _ownsKitty(address _address, uint256 _tokenId) internal view returns (bool) {\n        return (_kittyContract.ownerOf(_tokenId) == _address);\n    }\n\n    function setOffer(uint256 _price, uint256 _tokenId) public {\n        require(_ownsKitty(msg.sender, _tokenId), \"You are not the owner of that kitty\");\n        require(tokenIdToOffer[_tokenId].active == false, \"You can't sell twice the same offers\");\n        require(_kittyContract.isApprovedForAll(msg.sender, address(this)), \"Contract needs to be approved to transfer the kitty in the future\");\n\n        Offer memory _offer = Offer({\n            seller: msg.sender,\n            price: _price,\n            active: true,\n            tokenId: _tokenId,\n            index: offers.length\n\n        });\n\n        tokenIdToOffer[_tokenId] = _offer;\n        offers.push(_offer);\n\n        emit MarketTransaction(\"Create offer\", msg.sender, _tokenId);\n    }\n\n    function removeOffer(uint256 _tokenId) public {\n        Offer memory offer = tokenIdToOffer[_tokenId];\n        require(offer.seller == msg.sender, \"You are not the seller of that kitty\");\n        delete tokenIdToOffer[_tokenId];\n        //offers[tokenIdToOffer[_tokenId].index].active = false;\n        offers[offer.index].active = false;\n        emit MarketTransaction(\"Remove offer\", msg.sender, _tokenId);\n    }\n\n    function buyKitty(uint256 _tokenId) public payable {\n        Offer memory offer = tokenIdToOffer[_tokenId];\n        require(msg.value == offer.price, \"The price is incorrect\");\n        require(tokenIdToOffer[_tokenId].active == true, \"No active order present\");\n\n        // Important: delete the kitty from mapping before paying out to prevent reentry\n        delete tokenIdToOffer[_tokenId];\n        //offers[tokenIdToOffer[_tokenId].index].active = false;\n        offers[offer.index].active = false;\n\n        // Transfer the funds to the seller\n        // TODO: make this logic pull instead of push because it is more secure\n        if (offer.price > 0) {\n            offer.seller.transfer(offer.price);\n        }\n        // Transfer ownership of the kitty\n        _kittyContract.transferFrom(offer.seller, msg.sender, _tokenId);\n        emit MarketTransaction(\"Buy\", msg.sender, _tokenId);\n    }\n}",
  "sourcePath": "/Users/gdoujaiji/Documents/GitHub/academy-kitties-template/contracts/KittyMarketPlace.sol",
  "compiler": {
    "name": "solc",
    "version": "0.5.16+commit.9c3226ce.Emscripten.clang"
  },
  "schemaVersion": "3.2.5",
  "updatedAt": "2020-09-20T22:31:02.215Z",
  "networkType": "ethereum",
  "devdoc": {
    "methods": {}
  },
  "userdoc": {
    "methods": {}
  }
}